{
  "contractName": "Timelock",
  "abi": [
    {
      "inputs": [],
      "stateMutability": "nonpayable",
      "type": "constructor"
    },
    {
      "anonymous": false,
      "inputs": [
        {
          "indexed": true,
          "internalType": "address",
          "name": "user",
          "type": "address"
        },
        {
          "indexed": true,
          "internalType": "address",
          "name": "token",
          "type": "address"
        },
        {
          "indexed": false,
          "internalType": "uint256",
          "name": "amount",
          "type": "uint256"
        },
        {
          "indexed": false,
          "internalType": "uint256",
          "name": "deadline",
          "type": "uint256"
        }
      ],
      "name": "Locked",
      "type": "event"
    },
    {
      "anonymous": false,
      "inputs": [
        {
          "indexed": true,
          "internalType": "address",
          "name": "user",
          "type": "address"
        },
        {
          "indexed": true,
          "internalType": "address",
          "name": "token",
          "type": "address"
        },
        {
          "indexed": false,
          "internalType": "uint256",
          "name": "amount",
          "type": "uint256"
        }
      ],
      "name": "Withdraw",
      "type": "event"
    },
    {
      "inputs": [
        {
          "internalType": "address",
          "name": "_token",
          "type": "address"
        },
        {
          "internalType": "uint256",
          "name": "_amount",
          "type": "uint256"
        },
        {
          "internalType": "uint256",
          "name": "_deadline",
          "type": "uint256"
        }
      ],
      "name": "lockToken",
      "outputs": [
        {
          "internalType": "bool",
          "name": "",
          "type": "bool"
        }
      ],
      "stateMutability": "nonpayable",
      "type": "function"
    },
    {
      "inputs": [
        {
          "internalType": "uint256",
          "name": "_index",
          "type": "uint256"
        }
      ],
      "name": "withdraw",
      "outputs": [
        {
          "components": [
            {
              "internalType": "address",
              "name": "owner",
              "type": "address"
            },
            {
              "internalType": "address",
              "name": "token",
              "type": "address"
            },
            {
              "internalType": "uint256",
              "name": "amount",
              "type": "uint256"
            },
            {
              "internalType": "uint256",
              "name": "unlockDate",
              "type": "uint256"
            }
          ],
          "internalType": "struct Timelock.Lock[]",
          "name": "",
          "type": "tuple[]"
        }
      ],
      "stateMutability": "nonpayable",
      "type": "function"
    },
    {
      "inputs": [],
      "name": "getLocks",
      "outputs": [
        {
          "components": [
            {
              "internalType": "address",
              "name": "owner",
              "type": "address"
            },
            {
              "internalType": "address",
              "name": "token",
              "type": "address"
            },
            {
              "internalType": "uint256",
              "name": "amount",
              "type": "uint256"
            },
            {
              "internalType": "uint256",
              "name": "unlockDate",
              "type": "uint256"
            }
          ],
          "internalType": "struct Timelock.Lock[]",
          "name": "",
          "type": "tuple[]"
        }
      ],
      "stateMutability": "view",
      "type": "function",
      "constant": true
    },
    {
      "inputs": [
        {
          "internalType": "address",
          "name": "_user",
          "type": "address"
        }
      ],
      "name": "getLocksByUser",
      "outputs": [
        {
          "components": [
            {
              "internalType": "address",
              "name": "owner",
              "type": "address"
            },
            {
              "internalType": "address",
              "name": "token",
              "type": "address"
            },
            {
              "internalType": "uint256",
              "name": "amount",
              "type": "uint256"
            },
            {
              "internalType": "uint256",
              "name": "unlockDate",
              "type": "uint256"
            }
          ],
          "internalType": "struct Timelock.Lock[]",
          "name": "",
          "type": "tuple[]"
        }
      ],
      "stateMutability": "view",
      "type": "function",
      "constant": true
    }
  ],
  "bytecode": "0x608060405234801561001057600080fd5b50611560806100206000396000f3fe608060405234801561001057600080fd5b506004361061004c5760003560e01c80632e1a7d4d1461005157806344b056ed14610081578063839972f91461009f578063e9d973f8146100cf575b600080fd5b61006b60048036038101906100669190611049565b6100ff565b604051610078919061127a565b60405180910390f35b61008961090e565b604051610096919061127a565b60405180910390f35b6100b960048036038101906100b49190610fc9565b610a69565b6040516100c6919061129c565b60405180910390f35b6100e960048036038101906100e49190610f9c565b610deb565b6040516100f6919061127a565b60405180910390f35b606060008060003373ffffffffffffffffffffffffffffffffffffffff1673ffffffffffffffffffffffffffffffffffffffff16815260200190815260200160002083815481106101535761015261145f565b5b90600052602060002090600402016040518060800160405290816000820160009054906101000a900473ffffffffffffffffffffffffffffffffffffffff1673ffffffffffffffffffffffffffffffffffffffff1673ffffffffffffffffffffffffffffffffffffffff1681526020016001820160009054906101000a900473ffffffffffffffffffffffffffffffffffffffff1673ffffffffffffffffffffffffffffffffffffffff1673ffffffffffffffffffffffffffffffffffffffff168152602001600282015481526020016003820154815250509050806000015173ffffffffffffffffffffffffffffffffffffffff163373ffffffffffffffffffffffffffffffffffffffff16146102a0576040517f08c379a0000000000000000000000000000000000000000000000000000000008152600401610297906112b7565b60405180910390fd5b80606001514210156102e7576040517f08c379a00000000000000000000000000000000000000000000000000000000081526004016102de906112d7565b60405180910390fd5b60008060008360200151846040015160016000803373ffffffffffffffffffffffffffffffffffffffff1673ffffffffffffffffffffffffffffffffffffffff168152602001908152602001600020805490506103449190611385565b9250925092508086146105f7576000803373ffffffffffffffffffffffffffffffffffffffff1673ffffffffffffffffffffffffffffffffffffffff16815260200190815260200160002081815481106103a1576103a061145f565b5b90600052602060002090600402016000803373ffffffffffffffffffffffffffffffffffffffff1673ffffffffffffffffffffffffffffffffffffffff16815260200190815260200160002087815481106103ff576103fe61145f565b5b90600052602060002090600402016000820160009054906101000a900473ffffffffffffffffffffffffffffffffffffffff168160000160006101000a81548173ffffffffffffffffffffffffffffffffffffffff021916908373ffffffffffffffffffffffffffffffffffffffff1602179055506001820160009054906101000a900473ffffffffffffffffffffffffffffffffffffffff168160010160006101000a81548173ffffffffffffffffffffffffffffffffffffffff021916908373ffffffffffffffffffffffffffffffffffffffff1602179055506002820154816002015560038201548160030155905050836000803373ffffffffffffffffffffffffffffffffffffffff1673ffffffffffffffffffffffffffffffffffffffff16815260200190815260200160002082815481106105435761054261145f565b5b906000526020600020906004020160008201518160000160006101000a81548173ffffffffffffffffffffffffffffffffffffffff021916908373ffffffffffffffffffffffffffffffffffffffff16021790555060208201518160010160006101000a81548173ffffffffffffffffffffffffffffffffffffffff021916908373ffffffffffffffffffffffffffffffffffffffff16021790555060408201518160020155606082015181600301559050505b6000803373ffffffffffffffffffffffffffffffffffffffff1673ffffffffffffffffffffffffffffffffffffffff16815260200190815260200160002080548061064557610644611430565b5b6001900381819060005260206000209060040201600080820160006101000a81549073ffffffffffffffffffffffffffffffffffffffff02191690556001820160006101000a81549073ffffffffffffffffffffffffffffffffffffffff021916905560028201600090556003820160009055505090558273ffffffffffffffffffffffffffffffffffffffff1663a9059cbb33846040518363ffffffff1660e01b81526004016106f7929190611251565b602060405180830381600087803b15801561071157600080fd5b505af1158015610725573d6000803e3d6000fd5b505050506040513d601f19601f82011682018060405250810190610749919061101c565b508273ffffffffffffffffffffffffffffffffffffffff163373ffffffffffffffffffffffffffffffffffffffff167f9b1bfa7fa9ee420a16e124f794c35ac9f90472acc99140eb2f6447c714cad8eb846040516107a791906112f7565b60405180910390a36000803373ffffffffffffffffffffffffffffffffffffffff1673ffffffffffffffffffffffffffffffffffffffff168152602001908152602001600020805480602002602001604051908101604052809291908181526020016000905b828210156108ff57838290600052602060002090600402016040518060800160405290816000820160009054906101000a900473ffffffffffffffffffffffffffffffffffffffff1673ffffffffffffffffffffffffffffffffffffffff1673ffffffffffffffffffffffffffffffffffffffff1681526020016001820160009054906101000a900473ffffffffffffffffffffffffffffffffffffffff1673ffffffffffffffffffffffffffffffffffffffff1673ffffffffffffffffffffffffffffffffffffffff168152602001600282015481526020016003820154815250508152602001906001019061080d565b50505050945050505050919050565b60606000803373ffffffffffffffffffffffffffffffffffffffff1673ffffffffffffffffffffffffffffffffffffffff168152602001908152602001600020805480602002602001604051908101604052809291908181526020016000905b82821015610a6057838290600052602060002090600402016040518060800160405290816000820160009054906101000a900473ffffffffffffffffffffffffffffffffffffffff1673ffffffffffffffffffffffffffffffffffffffff1673ffffffffffffffffffffffffffffffffffffffff1681526020016001820160009054906101000a900473ffffffffffffffffffffffffffffffffffffffff1673ffffffffffffffffffffffffffffffffffffffff1673ffffffffffffffffffffffffffffffffffffffff168152602001600282015481526020016003820154815250508152602001906001019061096e565b50505050905090565b6000808473ffffffffffffffffffffffffffffffffffffffff166370a08231306040518263ffffffff1660e01b8152600401610aa591906111ff565b60206040518083038186803b158015610abd57600080fd5b505afa158015610ad1573d6000803e3d6000fd5b505050506040513d601f19601f82011682018060405250810190610af59190611076565b90508473ffffffffffffffffffffffffffffffffffffffff166323b872dd3330876040518463ffffffff1660e01b8152600401610b349392919061121a565b602060405180830381600087803b158015610b4e57600080fd5b505af1158015610b62573d6000803e3d6000fd5b505050506040513d601f19601f82011682018060405250810190610b86919061101c565b5060008573ffffffffffffffffffffffffffffffffffffffff166370a08231306040518263ffffffff1660e01b8152600401610bc291906111ff565b60206040518083038186803b158015610bda57600080fd5b505afa158015610bee573d6000803e3d6000fd5b505050506040513d601f19601f82011682018060405250810190610c129190611076565b90506000803373ffffffffffffffffffffffffffffffffffffffff1673ffffffffffffffffffffffffffffffffffffffff16815260200190815260200160002060405180608001604052803373ffffffffffffffffffffffffffffffffffffffff1681526020018873ffffffffffffffffffffffffffffffffffffffff1681526020018484610ca19190611385565b815260200186815250908060018154018082558091505060019003906000526020600020906004020160009091909190915060008201518160000160006101000a81548173ffffffffffffffffffffffffffffffffffffffff021916908373ffffffffffffffffffffffffffffffffffffffff16021790555060208201518160010160006101000a81548173ffffffffffffffffffffffffffffffffffffffff021916908373ffffffffffffffffffffffffffffffffffffffff160217905550604082015181600201556060820151816003015550508573ffffffffffffffffffffffffffffffffffffffff163373ffffffffffffffffffffffffffffffffffffffff167f967ad762aa9070ada8db64577288e214771e89667066ae38e8750cb8a86c54298787604051610dd6929190611312565b60405180910390a36001925050509392505050565b60606000808373ffffffffffffffffffffffffffffffffffffffff1673ffffffffffffffffffffffffffffffffffffffff168152602001908152602001600020805480602002602001604051908101604052809291908181526020016000905b82821015610f3d57838290600052602060002090600402016040518060800160405290816000820160009054906101000a900473ffffffffffffffffffffffffffffffffffffffff1673ffffffffffffffffffffffffffffffffffffffff1673ffffffffffffffffffffffffffffffffffffffff1681526020016001820160009054906101000a900473ffffffffffffffffffffffffffffffffffffffff1673ffffffffffffffffffffffffffffffffffffffff1673ffffffffffffffffffffffffffffffffffffffff1681526020016002820154815260200160038201548152505081526020019060010190610e4b565b505050509050919050565b600081359050610f57816114e5565b92915050565b600081519050610f6c816114fc565b92915050565b600081359050610f8181611513565b92915050565b600081519050610f9681611513565b92915050565b600060208284031215610fb257610fb161148e565b5b6000610fc084828501610f48565b91505092915050565b600080600060608486031215610fe257610fe161148e565b5b6000610ff086828701610f48565b935050602061100186828701610f72565b925050604061101286828701610f72565b9150509250925092565b6000602082840312156110325761103161148e565b5b600061104084828501610f5d565b91505092915050565b60006020828403121561105f5761105e61148e565b5b600061106d84828501610f72565b91505092915050565b60006020828403121561108c5761108b61148e565b5b600061109a84828501610f87565b91505092915050565b60006110af838361118c565b60808301905092915050565b6110c4816113b9565b82525050565b6110d3816113b9565b82525050565b60006110e48261134b565b6110ee8185611363565b93506110f98361133b565b8060005b8381101561112a57815161111188826110a3565b975061111c83611356565b9250506001810190506110fd565b5085935050505092915050565b611140816113cb565b82525050565b6000611153600d83611374565b915061115e82611493565b602082019050919050565b6000611176601783611374565b9150611181826114bc565b602082019050919050565b6080820160008201516111a260008501826110bb565b5060208201516111b560208501826110bb565b5060408201516111c860408501826111e1565b5060608201516111db60608501826111e1565b50505050565b6111ea816113f7565b82525050565b6111f9816113f7565b82525050565b600060208201905061121460008301846110ca565b92915050565b600060608201905061122f60008301866110ca565b61123c60208301856110ca565b61124960408301846111f0565b949350505050565b600060408201905061126660008301856110ca565b61127360208301846111f0565b9392505050565b6000602082019050818103600083015261129481846110d9565b905092915050565b60006020820190506112b16000830184611137565b92915050565b600060208201905081810360008301526112d081611146565b9050919050565b600060208201905081810360008301526112f081611169565b9050919050565b600060208201905061130c60008301846111f0565b92915050565b600060408201905061132760008301856111f0565b61133460208301846111f0565b9392505050565b6000819050602082019050919050565b600081519050919050565b6000602082019050919050565b600082825260208201905092915050565b600082825260208201905092915050565b6000611390826113f7565b915061139b836113f7565b9250828210156113ae576113ad611401565b5b828203905092915050565b60006113c4826113d7565b9050919050565b60008115159050919050565b600073ffffffffffffffffffffffffffffffffffffffff82169050919050565b6000819050919050565b7f4e487b7100000000000000000000000000000000000000000000000000000000600052601160045260246000fd5b7f4e487b7100000000000000000000000000000000000000000000000000000000600052603160045260246000fd5b7f4e487b7100000000000000000000000000000000000000000000000000000000600052603260045260246000fd5b600080fd5b7f6e6f7420746865206f776e657200000000000000000000000000000000000000600082015250565b7f546f6b656e206e6f7420756e6c6f636b65642079657421000000000000000000600082015250565b6114ee816113b9565b81146114f957600080fd5b50565b611505816113cb565b811461151057600080fd5b50565b61151c816113f7565b811461152757600080fd5b5056fea2646970667358221220dd39b7c342c36181156a3e28cc2a443a4335376e16c3dd31bc46481581028c2164736f6c63430008070033",
  "immutableReferences": {},
  "source": "//SPDX-License-Identifier: MIT\npragma solidity >=0.4.22 <0.9.0;\n   \n///@title Timelock dapp\n\n\ninterface IERC20 {\n    function balanceOf(address account) external view returns (uint);\n    function transfer(address recipient, uint256 amount) external returns (bool);\n    function transferFrom(address sender, address recipient, uint256 amount) external returns (bool);\n}\n\n\n///@notice lock tokens for a time period of your choosing\ncontract Timelock {\n   \n/// @notice struct to keep track and help manage locks\n    struct Lock\n    {\n        address owner;\n        address token;\n        uint256 amount;\n        uint256 unlockDate;\n    }\n   \n    mapping(address => Lock[]) userToTokenLocks;\n\n    event Locked(address indexed user, address indexed token, uint amount, uint deadline);\n    event Withdraw(address indexed user, address indexed token,  uint amount);\n\n    uint constant day = 86400;\n   \n    constructor(){}\n   ///@notice locks a specific token for a specific amount of time\n   ///@param _token, the address of the token to be locked\n   ///@param _amount, the amount of _token to be locked\n   ///@param _deadline, how long the token will be locked in days\n    function lockToken(address _token, uint256 _amount, uint256 _deadline) external returns(bool)\n    {\n        ///@notice before and after balance to prevent _amount of being higher than the final receiving amount due to tokenomics such as fee on transfer\n        uint balanceBefore = IERC20(_token).balanceOf(address(this));\n        IERC20(_token).transferFrom(msg.sender, address(this), _amount);\n        uint balanceAfter = IERC20(_token).balanceOf(address(this));\n        /// pushes to Lock struct \n        userToTokenLocks[msg.sender].push(Lock(msg.sender, _token, balanceAfter-balanceBefore, _deadline));     \n        ///Locked event\n        emit Locked(msg.sender, _token, _amount, _deadline);\n        return true;\n    }\n    \n///@notice returns locked funds and removes user from Lock struct\n    function withdraw(uint256 _index) external returns(Lock[] memory)\n    {\n        Lock memory lock = userToTokenLocks[msg.sender][_index];\n        require(msg.sender == lock.owner, \"not the owner\");\n        require(block.timestamp >= lock.unlockDate, \"Token not unlocked yet!\");\n\n        (address token, uint amount, uint last) = (lock.token,lock.amount,userToTokenLocks[msg.sender].length-1);\n\n        if(_index != last) {\n            userToTokenLocks[msg.sender][_index] = userToTokenLocks[msg.sender][last];\n            userToTokenLocks[msg.sender][last] = lock;\n        }\n\n        userToTokenLocks[msg.sender].pop();\n\n        IERC20(token).transfer(msg.sender, amount);\n        emit Withdraw(msg.sender,token,amount);\n        return userToTokenLocks[msg.sender];\n    }\n    \n    // @notice returns all locks\n    function getLocks() public view returns(Lock[] memory)  {\n        return userToTokenLocks[msg.sender];\n    }\n    //@notice returns locks by user\n    function getLocksByUser(address _user) public view returns(Lock[] memory){\n        return userToTokenLocks[_user];\n    }\n   \n}\n",
  "sourcePath": "/Users/smoking/timelock-final/contracts/Timelock.sol",
  "compiler": {
    "name": "solc",
    "version": "0.8.7+commit.e28d00a7.Emscripten.clang"
  },
  "schemaVersion": "3.4.3",
  "updatedAt": "2022-01-01T23:47:28.213Z",
  "networkType": "ethereum",
  "devdoc": {
    "kind": "dev",
    "methods": {
      "lockToken(address,uint256,uint256)": {
        "params": {
          "_amount": ", the amount of _token to be locked",
          "_deadline": ", how long the token will be locked in days",
          "_token": ", the address of the token to be locked"
        }
      }
    },
    "version": 1
  },
  "userdoc": {
    "kind": "user",
    "methods": {
      "lockToken(address,uint256,uint256)": {
        "notice": "locks a specific token for a specific amount of time"
      },
      "withdraw(uint256)": {
        "notice": "returns locked funds and removes user from Lock struct"
      }
    },
    "notice": "lock tokens for a time period of your choosing",
    "version": 1
  }
}